{
  "contractName": "main",
  "abi": [
    {
      "inputs": [],
      "payable": false,
      "stateMutability": "nonpayable",
      "type": "constructor"
    },
    {
      "constant": true,
      "inputs": [
        {
          "internalType": "uint256",
          "name": "",
          "type": "uint256"
        }
      ],
      "name": "NeedyStudents",
      "outputs": [
        {
          "internalType": "uint256",
          "name": "aadhaar_id",
          "type": "uint256"
        },
        {
          "internalType": "address",
          "name": "schAddr",
          "type": "address"
        },
        {
          "internalType": "uint256",
          "name": "averageFamilyIncome",
          "type": "uint256"
        },
        {
          "internalType": "string",
          "name": "ipfsHash",
          "type": "string"
        },
        {
          "internalType": "uint256",
          "name": "consignment",
          "type": "uint256"
        },
        {
          "internalType": "bool",
          "name": "flagged",
          "type": "bool"
        }
      ],
      "payable": false,
      "stateMutability": "view",
      "type": "function"
    },
    {
      "constant": true,
      "inputs": [
        {
          "internalType": "address",
          "name": "",
          "type": "address"
        },
        {
          "internalType": "uint256",
          "name": "",
          "type": "uint256"
        }
      ],
      "name": "NeedyStudentsBySchool",
      "outputs": [
        {
          "internalType": "uint256",
          "name": "",
          "type": "uint256"
        }
      ],
      "payable": false,
      "stateMutability": "view",
      "type": "function"
    },
    {
      "constant": true,
      "inputs": [],
      "name": "admin",
      "outputs": [
        {
          "internalType": "address",
          "name": "",
          "type": "address"
        }
      ],
      "payable": false,
      "stateMutability": "view",
      "type": "function"
    },
    {
      "constant": true,
      "inputs": [
        {
          "internalType": "uint256",
          "name": "",
          "type": "uint256"
        }
      ],
      "name": "lAdmins",
      "outputs": [
        {
          "internalType": "uint256",
          "name": "pincode",
          "type": "uint256"
        },
        {
          "internalType": "address",
          "name": "lAdmin",
          "type": "address"
        },
        {
          "internalType": "string",
          "name": "name",
          "type": "string"
        },
        {
          "internalType": "uint256",
          "name": "aadhaar_id",
          "type": "uint256"
        }
      ],
      "payable": false,
      "stateMutability": "view",
      "type": "function"
    },
    {
      "constant": true,
      "inputs": [
        {
          "internalType": "address",
          "name": "",
          "type": "address"
        }
      ],
      "name": "manufacturerIds",
      "outputs": [
        {
          "internalType": "string",
          "name": "",
          "type": "string"
        }
      ],
      "payable": false,
      "stateMutability": "view",
      "type": "function"
    },
    {
      "constant": true,
      "inputs": [
        {
          "internalType": "string",
          "name": "",
          "type": "string"
        }
      ],
      "name": "manufacturers",
      "outputs": [
        {
          "internalType": "address payable",
          "name": "man_address",
          "type": "address"
        },
        {
          "internalType": "string",
          "name": "compName",
          "type": "string"
        },
        {
          "internalType": "string",
          "name": "cin",
          "type": "string"
        }
      ],
      "payable": false,
      "stateMutability": "view",
      "type": "function"
    },
    {
      "constant": true,
      "inputs": [
        {
          "internalType": "address",
          "name": "",
          "type": "address"
        }
      ],
      "name": "pincodeByAddress",
      "outputs": [
        {
          "internalType": "uint256",
          "name": "",
          "type": "uint256"
        }
      ],
      "payable": false,
      "stateMutability": "view",
      "type": "function"
    },
    {
      "constant": true,
      "inputs": [
        {
          "internalType": "address",
          "name": "",
          "type": "address"
        },
        {
          "internalType": "uint256",
          "name": "",
          "type": "uint256"
        }
      ],
      "name": "proposalsForSchool",
      "outputs": [
        {
          "internalType": "string",
          "name": "forSchl",
          "type": "string"
        },
        {
          "internalType": "string",
          "name": "byManfac",
          "type": "string"
        },
        {
          "internalType": "string",
          "name": "description",
          "type": "string"
        },
        {
          "internalType": "string",
          "name": "prototypeHash",
          "type": "string"
        },
        {
          "internalType": "string",
          "name": "receiptHash",
          "type": "string"
        },
        {
          "internalType": "string",
          "name": "status",
          "type": "string"
        },
        {
          "internalType": "uint256",
          "name": "cost",
          "type": "uint256"
        },
        {
          "internalType": "address payable",
          "name": "merchant",
          "type": "address"
        }
      ],
      "payable": false,
      "stateMutability": "view",
      "type": "function"
    },
    {
      "constant": true,
      "inputs": [
        {
          "internalType": "address",
          "name": "",
          "type": "address"
        }
      ],
      "name": "schools",
      "outputs": [
        {
          "internalType": "uint256",
          "name": "pincode",
          "type": "uint256"
        },
        {
          "internalType": "address",
          "name": "id",
          "type": "address"
        },
        {
          "internalType": "string",
          "name": "name",
          "type": "string"
        },
        {
          "internalType": "uint256",
          "name": "totalStudents",
          "type": "uint256"
        },
        {
          "internalType": "uint256",
          "name": "needyCount",
          "type": "uint256"
        },
        {
          "internalType": "uint256",
          "name": "currentConsignment",
          "type": "uint256"
        },
        {
          "internalType": "bool",
          "name": "active",
          "type": "bool"
        },
        {
          "internalType": "uint256",
          "name": "balance",
          "type": "uint256"
        }
      ],
      "payable": false,
      "stateMutability": "view",
      "type": "function"
    },
    {
      "constant": true,
      "inputs": [
        {
          "internalType": "uint256",
          "name": "",
          "type": "uint256"
        },
        {
          "internalType": "uint256",
          "name": "",
          "type": "uint256"
        }
      ],
      "name": "schoolsByPin",
      "outputs": [
        {
          "internalType": "address",
          "name": "",
          "type": "address"
        }
      ],
      "payable": false,
      "stateMutability": "view",
      "type": "function"
    },
    {
      "constant": false,
      "inputs": [
        {
          "internalType": "address",
          "name": "_saddress",
          "type": "address"
        },
        {
          "internalType": "uint256",
          "name": "_pid",
          "type": "uint256"
        }
      ],
      "name": "acceptDonation",
      "outputs": [],
      "payable": true,
      "stateMutability": "payable",
      "type": "function"
    },
    {
      "constant": false,
      "inputs": [
        {
          "internalType": "address",
          "name": "_address",
          "type": "address"
        },
        {
          "internalType": "uint256",
          "name": "_pincode",
          "type": "uint256"
        },
        {
          "internalType": "string",
          "name": "_name",
          "type": "string"
        },
        {
          "internalType": "uint256",
          "name": "_aadhaar",
          "type": "uint256"
        }
      ],
      "name": "createLocal",
      "outputs": [],
      "payable": false,
      "stateMutability": "nonpayable",
      "type": "function"
    },
    {
      "constant": false,
      "inputs": [
        {
          "internalType": "address payable",
          "name": "_address",
          "type": "address"
        },
        {
          "internalType": "string",
          "name": "_name",
          "type": "string"
        },
        {
          "internalType": "string",
          "name": "_cin",
          "type": "string"
        }
      ],
      "name": "createManufacturer",
      "outputs": [],
      "payable": false,
      "stateMutability": "nonpayable",
      "type": "function"
    },
    {
      "constant": false,
      "inputs": [
        {
          "internalType": "uint256",
          "name": "_pincode",
          "type": "uint256"
        },
        {
          "internalType": "address",
          "name": "_address",
          "type": "address"
        },
        {
          "internalType": "string",
          "name": "_name",
          "type": "string"
        },
        {
          "internalType": "uint256",
          "name": "_total",
          "type": "uint256"
        }
      ],
      "name": "createSchool",
      "outputs": [],
      "payable": false,
      "stateMutability": "nonpayable",
      "type": "function"
    },
    {
      "constant": false,
      "inputs": [
        {
          "internalType": "uint256",
          "name": "_pincode",
          "type": "uint256"
        }
      ],
      "name": "getSchoolsByPin",
      "outputs": [
        {
          "internalType": "address[]",
          "name": "",
          "type": "address[]"
        }
      ],
      "payable": false,
      "stateMutability": "nonpayable",
      "type": "function"
    },
    {
      "constant": false,
      "inputs": [
        {
          "internalType": "uint256",
          "name": "_aadhaar",
          "type": "uint256"
        },
        {
          "internalType": "uint256",
          "name": "_avgIncome",
          "type": "uint256"
        },
        {
          "internalType": "string",
          "name": "_ipfs",
          "type": "string"
        }
      ],
      "name": "createNeedy",
      "outputs": [],
      "payable": false,
      "stateMutability": "nonpayable",
      "type": "function"
    },
    {
      "constant": false,
      "inputs": [
        {
          "internalType": "address",
          "name": "_saddress",
          "type": "address"
        },
        {
          "internalType": "string",
          "name": "_descreption",
          "type": "string"
        },
        {
          "internalType": "string",
          "name": "_ipfshash",
          "type": "string"
        },
        {
          "internalType": "uint256",
          "name": "_costPerPerson",
          "type": "uint256"
        }
      ],
      "name": "createProposal",
      "outputs": [],
      "payable": false,
      "stateMutability": "nonpayable",
      "type": "function"
    },
    {
      "constant": false,
      "inputs": [
        {
          "internalType": "uint256",
          "name": "_pid",
          "type": "uint256"
        }
      ],
      "name": "acceptProposal",
      "outputs": [],
      "payable": false,
      "stateMutability": "nonpayable",
      "type": "function"
    },
    {
      "constant": false,
      "inputs": [
        {
          "internalType": "uint256",
          "name": "_pincode",
          "type": "uint256"
        },
        {
          "internalType": "address",
          "name": "_address",
          "type": "address"
        },
        {
          "internalType": "bool",
          "name": "_activeKey",
          "type": "bool"
        }
      ],
      "name": "resetConsignment",
      "outputs": [],
      "payable": false,
      "stateMutability": "nonpayable",
      "type": "function"
    },
    {
      "constant": false,
      "inputs": [
        {
          "internalType": "uint256",
          "name": "_pincode",
          "type": "uint256"
        },
        {
          "internalType": "uint256",
          "name": "_aadhaar",
          "type": "uint256"
        },
        {
          "internalType": "bool",
          "name": "_key",
          "type": "bool"
        }
      ],
      "name": "flagNeedy",
      "outputs": [],
      "payable": false,
      "stateMutability": "nonpayable",
      "type": "function"
    },
    {
      "constant": false,
      "inputs": [
        {
          "internalType": "uint256",
          "name": "_pincode",
          "type": "uint256"
        },
        {
          "internalType": "address",
          "name": "_saddress",
          "type": "address"
        },
        {
          "internalType": "uint256",
          "name": "_count",
          "type": "uint256"
        }
      ],
      "name": "updateTotal",
      "outputs": [],
      "payable": false,
      "stateMutability": "nonpayable",
      "type": "function"
    },
    {
      "constant": false,
      "inputs": [
        {
          "internalType": "uint256",
          "name": "_pincode",
          "type": "uint256"
        },
        {
          "internalType": "address",
          "name": "_saddress",
          "type": "address"
        },
        {
          "internalType": "uint256",
          "name": "_pid",
          "type": "uint256"
        },
        {
          "internalType": "string",
          "name": "_ipfs",
          "type": "string"
        }
      ],
      "name": "confirmReceipt",
      "outputs": [],
      "payable": false,
      "stateMutability": "nonpayable",
      "type": "function"
    },
    {
      "constant": false,
      "inputs": [
        {
          "internalType": "uint256",
          "name": "_pid",
          "type": "uint256"
        },
        {
          "internalType": "uint256",
          "name": "_aadhaar",
          "type": "uint256"
        },
        {
          "internalType": "string",
          "name": "_ipfs",
          "type": "string"
        }
      ],
      "name": "proofOfWork",
      "outputs": [],
      "payable": true,
      "stateMutability": "payable",
      "type": "function"
    },
    {
      "constant": true,
      "inputs": [
        {
          "internalType": "uint256",
          "name": "_pin",
          "type": "uint256"
        }
      ],
      "name": "getSchoolsCount",
      "outputs": [
        {
          "internalType": "uint256",
          "name": "",
          "type": "uint256"
        }
      ],
      "payable": false,
      "stateMutability": "view",
      "type": "function"
    }
  ],
  "bytecode": "0x608060405234801561001057600080fd5b50336000806101000a81548173ffffffffffffffffffffffffffffffffffffffff021916908373ffffffffffffffffffffffffffffffffffffffff1602179055506000600181905550615f8b80620000696000396000f3fe60806040526004361061014b5760003560e01c80638d54ea3e116100b6578063c568bb181161006f578063c568bb1814611165578063d749b17914611241578063ddc51518146112a6578063e7f46f3c146113a2578063f8509b6c146113f0578063f851a440146115d05761014b565b80638d54ea3e14610cf85780639e53506314610d5d578063a682c61914610e2c578063be77edcb14610f28578063c260a5c114610f97578063c3c7fd5a14610fe65761014b565b806360c5cc3a1161010857806360c5cc3a146109375780636fcfef8a1461097257806372153884146109f7578063727790fa14610aec5780637d00063814610c175780638c29a64b14610c685761014b565b806302d443ef146101505780630f7e52561461021a57806316aba7fe146103a35780634ece3a5d146104aa57806353a35817146105115780635a3820ba1461060d575b600080fd5b34801561015c57600080fd5b5061019f6004803603602081101561017357600080fd5b81019080803573ffffffffffffffffffffffffffffffffffffffff169060200190929190505050611627565b6040518080602001828103825283818151815260200191508051906020019080838360005b838110156101df5780820151818401526020810190506101c4565b50505050905090810190601f16801561020c5780820380516001836020036101000a031916815260200191505b509250505060405180910390f35b34801561022657600080fd5b506103a16004803603608081101561023d57600080fd5b81019080803573ffffffffffffffffffffffffffffffffffffffff1690602001909291908035906020019064010000000081111561027a57600080fd5b82018360208201111561028c57600080fd5b803590602001918460018302840111640100000000831117156102ae57600080fd5b91908080601f016020809104026020016040519081016040528093929190818152602001838380828437600081840152601f19601f8201169050808301925050505050505091929192908035906020019064010000000081111561031157600080fd5b82018360208201111561032357600080fd5b8035906020019184600183028401116401000000008311171561034557600080fd5b91908080601f016020809104026020016040519081016040528093929190818152602001838380828437600081840152601f19601f820116905080830192505050505050509192919290803590602001909291905050506116d7565b005b3480156103af57600080fd5b506103dc600480360360208110156103c657600080fd5b8101908080359060200190929190505050611cb6565b604051808781526020018673ffffffffffffffffffffffffffffffffffffffff1673ffffffffffffffffffffffffffffffffffffffff1681526020018581526020018060200184815260200183151515158152602001828103825285818151815260200191508051906020019080838360005b8381101561046a57808201518184015260208101905061044f565b50505050905090810190601f1680156104975780820380516001836020036101000a031916815260200191505b5097505050505050505060405180910390f35b3480156104b657600080fd5b5061050f600480360360608110156104cd57600080fd5b8101908080359060200190929190803573ffffffffffffffffffffffffffffffffffffffff169060200190929190803515159060200190929190505050611db7565b005b34801561051d57600080fd5b5061060b6004803603608081101561053457600080fd5b8101908080359060200190929190803573ffffffffffffffffffffffffffffffffffffffff1690602001909291908035906020019064010000000081111561057b57600080fd5b82018360208201111561058d57600080fd5b803590602001918460018302840111640100000000831117156105af57600080fd5b91908080601f016020809104026020016040519081016040528093929190818152602001838380828437600081840152601f19601f820116905080830192505050505050509192919290803590602001909291905050506122f1565b005b34801561061957600080fd5b506106666004803603604081101561063057600080fd5b81019080803573ffffffffffffffffffffffffffffffffffffffff16906020019092919080359060200190929190505050612993565b604051808060200180602001806020018060200180602001806020018981526020018873ffffffffffffffffffffffffffffffffffffffff1673ffffffffffffffffffffffffffffffffffffffff16815260200187810387528f818151815260200191508051906020019080838360005b838110156106f25780820151818401526020810190506106d7565b50505050905090810190601f16801561071f5780820380516001836020036101000a031916815260200191505b5087810386528e818151815260200191508051906020019080838360005b8381101561075857808201518184015260208101905061073d565b50505050905090810190601f1680156107855780820380516001836020036101000a031916815260200191505b5087810385528d818151815260200191508051906020019080838360005b838110156107be5780820151818401526020810190506107a3565b50505050905090810190601f1680156107eb5780820380516001836020036101000a031916815260200191505b5087810384528c818151815260200191508051906020019080838360005b83811015610824578082015181840152602081019050610809565b50505050905090810190601f1680156108515780820380516001836020036101000a031916815260200191505b5087810383528b818151815260200191508051906020019080838360005b8381101561088a57808201518184015260208101905061086f565b50505050905090810190601f1680156108b75780820380516001836020036101000a031916815260200191505b5087810382528a818151815260200191508051906020019080838360005b838110156108f05780820151818401526020810190506108d5565b50505050905090810190601f16801561091d5780820380516001836020036101000a031916815260200191505b509e50505050505050505050505050505060405180910390f35b34801561094357600080fd5b506109706004803603602081101561095a57600080fd5b8101908080359060200190929190505050612da5565b005b34801561097e57600080fd5b506109b56004803603604081101561099557600080fd5b8101908080359060200190929190803590602001909291905050506136b1565b604051808273ffffffffffffffffffffffffffffffffffffffff1673ffffffffffffffffffffffffffffffffffffffff16815260200191505060405180910390f35b348015610a0357600080fd5b50610a3060048036036020811015610a1a57600080fd5b81019080803590602001909291905050506136fc565b604051808581526020018473ffffffffffffffffffffffffffffffffffffffff1673ffffffffffffffffffffffffffffffffffffffff16815260200180602001838152602001828103825284818151815260200191508051906020019080838360005b83811015610aae578082015181840152602081019050610a93565b50505050905090810190601f168015610adb5780820380516001836020036101000a031916815260200191505b509550505050505060405180910390f35b348015610af857600080fd5b50610b3b60048036036020811015610b0f57600080fd5b81019080803573ffffffffffffffffffffffffffffffffffffffff1690602001909291905050506137e4565b604051808981526020018873ffffffffffffffffffffffffffffffffffffffff1673ffffffffffffffffffffffffffffffffffffffff1681526020018060200187815260200186815260200185815260200184151515158152602001838152602001828103825288818151815260200191508051906020019080838360005b83811015610bd5578082015181840152602081019050610bba565b50505050905090810190601f168015610c025780820380516001836020036101000a031916815260200191505b50995050505050505050505060405180910390f35b348015610c2357600080fd5b50610c6660048036036060811015610c3a57600080fd5b8101908080359060200190929190803590602001909291908035151590602001909291905050506138f1565b005b348015610c7457600080fd5b50610ca160048036036020811015610c8b57600080fd5b8101908080359060200190929190505050613ad4565b6040518080602001828103825283818151815260200191508051906020019060200280838360005b83811015610ce4578082015181840152602081019050610cc9565b505050509050019250505060405180910390f35b348015610d0457600080fd5b50610d4760048036036020811015610d1b57600080fd5b81019080803573ffffffffffffffffffffffffffffffffffffffff169060200190929190505050613b75565b6040518082815260200191505060405180910390f35b610e2a60048036036060811015610d7357600080fd5b81019080803590602001909291908035906020019092919080359060200190640100000000811115610da457600080fd5b820183602082011115610db657600080fd5b80359060200191846001830284011164010000000083111715610dd857600080fd5b91908080601f016020809104026020016040519081016040528093929190818152602001838380828437600081840152601f19601f820116905080830192505050505050509192919290505050613b8d565b005b348015610e3857600080fd5b50610f2660048036036080811015610e4f57600080fd5b81019080803573ffffffffffffffffffffffffffffffffffffffff1690602001909291908035906020019092919080359060200190640100000000811115610e9657600080fd5b820183602082011115610ea857600080fd5b80359060200191846001830284011164010000000083111715610eca57600080fd5b91908080601f016020809104026020016040519081016040528093929190818152602001838380828437600081840152601f19601f82011690508083019250505050505050919291929080359060200190929190505050614703565b005b348015610f3457600080fd5b50610f8160048036036040811015610f4b57600080fd5b81019080803573ffffffffffffffffffffffffffffffffffffffff169060200190929190803590602001909291905050506148d4565b6040518082815260200191505060405180910390f35b348015610fa357600080fd5b50610fd060048036036020811015610fba57600080fd5b8101908080359060200190929190505050614902565b6040518082815260200191505060405180910390f35b348015610ff257600080fd5b506111636004803603606081101561100957600080fd5b81019080803573ffffffffffffffffffffffffffffffffffffffff1690602001909291908035906020019064010000000081111561104657600080fd5b82018360208201111561105857600080fd5b8035906020019184600183028401116401000000008311171561107a57600080fd5b91908080601f016020809104026020016040519081016040528093929190818152602001838380828437600081840152601f19601f820116905080830192505050505050509192919290803590602001906401000000008111156110dd57600080fd5b8201836020820111156110ef57600080fd5b8035906020019184600183028401116401000000008311171561111157600080fd5b91908080601f016020809104026020016040519081016040528093929190818152602001838380828437600081840152601f19601f820116905080830192505050505050509192919290505050614922565b005b34801561117157600080fd5b5061123f6004803603606081101561118857600080fd5b810190808035906020019092919080359060200190929190803590602001906401000000008111156111b957600080fd5b8201836020820111156111cb57600080fd5b803590602001918460018302840111640100000000831117156111ed57600080fd5b91908080601f016020809104026020016040519081016040528093929190818152602001838380828437600081840152601f19601f820116905080830192505050505050509192919290505050614cea565b005b34801561124d57600080fd5b506112a46004803603606081101561126457600080fd5b8101908080359060200190929190803573ffffffffffffffffffffffffffffffffffffffff1690602001909291908035906020019092919050505061509a565b005b3480156112b257600080fd5b506113a0600480360360808110156112c957600080fd5b8101908080359060200190929190803573ffffffffffffffffffffffffffffffffffffffff169060200190929190803590602001909291908035906020019064010000000081111561131a57600080fd5b82018360208201111561132c57600080fd5b8035906020019184600183028401116401000000008311171561134e57600080fd5b91908080601f016020809104026020016040519081016040528093929190818152602001838380828437600081840152601f19601f8201169050808301925050505050505091929192905050506152c2565b005b6113ee600480360360408110156113b857600080fd5b81019080803573ffffffffffffffffffffffffffffffffffffffff169060200190929190803590602001909291905050506158e8565b005b3480156113fc57600080fd5b506114b66004803603602081101561141357600080fd5b810190808035906020019064010000000081111561143057600080fd5b82018360208201111561144257600080fd5b8035906020019184600183028401116401000000008311171561146457600080fd5b91908080601f016020809104026020016040519081016040528093929190818152602001838380828437600081840152601f19601f820116905080830192505050505050509192919290505050615a34565b604051808473ffffffffffffffffffffffffffffffffffffffff1673ffffffffffffffffffffffffffffffffffffffff1681526020018060200180602001838103835285818151815260200191508051906020019080838360005b8381101561152c578082015181840152602081019050611511565b50505050905090810190601f1680156115595780820380516001836020036101000a031916815260200191505b50838103825284818151815260200191508051906020019080838360005b83811015611592578082015181840152602081019050611577565b50505050905090810190601f1680156115bf5780820380516001836020036101000a031916815260200191505b509550505050505060405180910390f35b3480156115dc57600080fd5b506115e5615bc4565b604051808273ffffffffffffffffffffffffffffffffffffffff1673ffffffffffffffffffffffffffffffffffffffff16815260200191505060405180910390f35b60086020528060005260406000206000915090508054600181600116156101000203166002900480601f0160208091040260200160405190810160405280929190818152602001828054600181600116156101000203166002900480156116cf5780601f106116a4576101008083540402835291602001916116cf565b820191906000526020600020905b8154815290600101906020018083116116b257829003601f168201915b505050505081565b6117c7600860003373ffffffffffffffffffffffffffffffffffffffff1673ffffffffffffffffffffffffffffffffffffffff1681526020019081526020016000208054600181600116156101000203166002900480601f0160208091040260200160405190810160405280929190818152602001828054600181600116156101000203166002900480156117ad5780601f10611782576101008083540402835291602001916117ad565b820191906000526020600020905b81548152906001019060200180831161179057829003601f168201915b505050505060405180602001604052806000815250615be9565b1561181d576040517f08c379a0000000000000000000000000000000000000000000000000000000008152600401808060200182810382526030815260200180615eb76030913960400191505060405180910390fd5b60018060008282540192505081905550600660008573ffffffffffffffffffffffffffffffffffffffff1673ffffffffffffffffffffffffffffffffffffffff168152602001908152602001600020604051806101000160405280600260008873ffffffffffffffffffffffffffffffffffffffff1673ffffffffffffffffffffffffffffffffffffffff1681526020019081526020016000206002018054600181600116156101000203166002900480601f01602080910402602001604051908101604052809291908181526020018280546001816001161561010002031660029004801561194e5780601f106119235761010080835404028352916020019161194e565b820191906000526020600020905b81548152906001019060200180831161193157829003601f168201915b50505050508152602001600860003373ffffffffffffffffffffffffffffffffffffffff1673ffffffffffffffffffffffffffffffffffffffff1681526020019081526020016000208054600181600116156101000203166002900480601f016020809104026020016040519081016040528092919081815260200182805460018160011615610100020316600290048015611a2b5780601f10611a0057610100808354040283529160200191611a2b565b820191906000526020600020905b815481529060010190602001808311611a0e57829003601f168201915b505050505081526020018581526020018481526020016040518060200160405280600081525081526020016040518060400160405280600881526020017f50726f706f73656400000000000000000000000000000000000000000000000081525081526020018381526020016007600860003373ffffffffffffffffffffffffffffffffffffffff1673ffffffffffffffffffffffffffffffffffffffff1681526020019081526020016000206040518082805460018160011615610100020316600290048015611b335780601f10611b11576101008083540402835291820191611b33565b820191906000526020600020905b815481529060010190602001808311611b1f575b5050915050908152602001604051809103902060000160009054906101000a900473ffffffffffffffffffffffffffffffffffffffff1673ffffffffffffffffffffffffffffffffffffffff16815250908060018154018082558091505090600182039060005260206000209060080201600090919290919091506000820151816000019080519060200190611bca929190615cd8565b506020820151816001019080519060200190611be7929190615cd8565b506040820151816002019080519060200190611c04929190615cd8565b506060820151816003019080519060200190611c21929190615cd8565b506080820151816004019080519060200190611c3e929190615cd8565b5060a0820151816005019080519060200190611c5b929190615cd8565b5060c0820151816006015560e08201518160070160006101000a81548173ffffffffffffffffffffffffffffffffffffffff021916908373ffffffffffffffffffffffffffffffffffffffff16021790555050505050505050565b60096020528060005260406000206000915090508060000154908060010160009054906101000a900473ffffffffffffffffffffffffffffffffffffffff1690806002015490806003018054600181600116156101000203166002900480601f016020809104026020016040519081016040528092919081815260200182805460018160011615610100020316600290048015611d945780601f10611d6957610100808354040283529160200191611d94565b820191906000526020600020905b815481529060010190602001808311611d7757829003601f168201915b5050505050908060040154908060050160009054906101000a900460ff16905086565b6004600084815260200190815260200160002060010160009054906101000a900473ffffffffffffffffffffffffffffffffffffffff1673ffffffffffffffffffffffffffffffffffffffff163373ffffffffffffffffffffffffffffffffffffffff1614611e8e576040517f08c379a00000000000000000000000000000000000000000000000000000000081526004018080602001828103825260098152602001807f466f7262696464656e000000000000000000000000000000000000000000000081525060200191505060405180910390fd5b600073ffffffffffffffffffffffffffffffffffffffff16600260008473ffffffffffffffffffffffffffffffffffffffff1673ffffffffffffffffffffffffffffffffffffffff16815260200190815260200160002060010160009054906101000a900473ffffffffffffffffffffffffffffffffffffffff1673ffffffffffffffffffffffffffffffffffffffff161415611f93576040517f08c379a00000000000000000000000000000000000000000000000000000000081526004018080602001828103825260158152602001807f5363686f6f6c20646f65736e6f7420657869737421000000000000000000000081525060200191505060405180910390fd5b80600260008473ffffffffffffffffffffffffffffffffffffffff1673ffffffffffffffffffffffffffffffffffffffff16815260200190815260200160002060060160006101000a81548160ff021916908315150217905550806122ec57612166600660008473ffffffffffffffffffffffffffffffffffffffff1673ffffffffffffffffffffffffffffffffffffffff168152602001908152602001600020600260008573ffffffffffffffffffffffffffffffffffffffff1673ffffffffffffffffffffffffffffffffffffffff168152602001908152602001600020600501548154811061208157fe5b90600052602060002090600802016005018054600181600116156101000203166002900480601f0160208091040260200160405190810160405280929190818152602001828054600181600116156101000203166002900480156121265780601f106120fb57610100808354040283529160200191612126565b820191906000526020600020905b81548152906001019060200180831161210957829003601f168201915b50505050506040518060400160405280600981526020017f436f6d706c657465640000000000000000000000000000000000000000000000815250615be9565b156121bc576040517f08c379a000000000000000000000000000000000000000000000000000000000815260040180806020018281038252602e815260200180615e1f602e913960400191505060405180910390fd5b6040518060400160405280600881526020017f52656a6563746564000000000000000000000000000000000000000000000000815250600660008473ffffffffffffffffffffffffffffffffffffffff1673ffffffffffffffffffffffffffffffffffffffff168152602001908152602001600020600260008573ffffffffffffffffffffffffffffffffffffffff1673ffffffffffffffffffffffffffffffffffffffff168152602001908152602001600020600501548154811061227e57fe5b906000526020600020906008020160050190805190602001906122a2929190615d58565b506000600260008473ffffffffffffffffffffffffffffffffffffffff1673ffffffffffffffffffffffffffffffffffffffff168152602001908152602001600020600501819055505b505050565b6004600085815260200190815260200160002060010160009054906101000a900473ffffffffffffffffffffffffffffffffffffffff1673ffffffffffffffffffffffffffffffffffffffff163373ffffffffffffffffffffffffffffffffffffffff16146123c8576040517f08c379a00000000000000000000000000000000000000000000000000000000081526004018080602001828103825260098152602001807f466f7262696464656e000000000000000000000000000000000000000000000081525060200191505060405180910390fd5b600073ffffffffffffffffffffffffffffffffffffffff16600260008573ffffffffffffffffffffffffffffffffffffffff1673ffffffffffffffffffffffffffffffffffffffff16815260200190815260200160002060010160009054906101000a900473ffffffffffffffffffffffffffffffffffffffff1673ffffffffffffffffffffffffffffffffffffffff16146124cc576040517f08c379a00000000000000000000000000000000000000000000000000000000081526004018080602001828103825260178152602001807f5363686f6f6c20696420616c726561647920657869737400000000000000000081525060200191505060405180910390fd5b6040518061010001604052808581526020018473ffffffffffffffffffffffffffffffffffffffff16815260200183815260200182815260200160008152602001600081526020016001151581526020016000815250600260008573ffffffffffffffffffffffffffffffffffffffff1673ffffffffffffffffffffffffffffffffffffffff1681526020019081526020016000206000820151816000015560208201518160010160006101000a81548173ffffffffffffffffffffffffffffffffffffffff021916908373ffffffffffffffffffffffffffffffffffffffff16021790555060408201518160020190805190602001906125ce929190615cd8565b50606082015181600301556080820151816004015560a0820151816005015560c08201518160060160006101000a81548160ff02191690831515021790555060e08201518160070155905050600360008581526020019081526020016000208390806001815401808255809150509060018203906000526020600020016000909192909190916101000a81548173ffffffffffffffffffffffffffffffffffffffff021916908373ffffffffffffffffffffffffffffffffffffffff16021790555050600660008473ffffffffffffffffffffffffffffffffffffffff1673ffffffffffffffffffffffffffffffffffffffff1681526020019081526020016000206040518061010001604052806040518060400160405280600481526020017f6e756c6c0000000000000000000000000000000000000000000000000000000081525081526020016040518060400160405280600481526020017f6e756c6c0000000000000000000000000000000000000000000000000000000081525081526020016040518060400160405280600481526020017f6e756c6c0000000000000000000000000000000000000000000000000000000081525081526020016040518060400160405280600481526020017f6e756c6c0000000000000000000000000000000000000000000000000000000081525081526020016040518060400160405280600481526020017f6e756c6c0000000000000000000000000000000000000000000000000000000081525081526020016040518060400160405280600681526020017f46696c6c65720000000000000000000000000000000000000000000000000000815250815260200160008152602001600073ffffffffffffffffffffffffffffffffffffffff168152509080600181540180825580915050906001820390600052602060002090600802016000909192909190915060008201518160000190805190602001906128a7929190615cd8565b5060208201518160010190805190602001906128c4929190615cd8565b5060408201518160020190805190602001906128e1929190615cd8565b5060608201518160030190805190602001906128fe929190615cd8565b50608082015181600401908051906020019061291b929190615cd8565b5060a0820151816005019080519060200190612938929190615cd8565b5060c0820151816006015560e08201518160070160006101000a81548173ffffffffffffffffffffffffffffffffffffffff021916908373ffffffffffffffffffffffffffffffffffffffff16021790555050505050505050565b600660205281600052604060002081815481106129ac57fe5b906000526020600020906008020160009150915050806000018054600181600116156101000203166002900480601f016020809104026020016040519081016040528092919081815260200182805460018160011615610100020316600290048015612a595780601f10612a2e57610100808354040283529160200191612a59565b820191906000526020600020905b815481529060010190602001808311612a3c57829003601f168201915b505050505090806001018054600181600116156101000203166002900480601f016020809104026020016040519081016040528092919081815260200182805460018160011615610100020316600290048015612af75780601f10612acc57610100808354040283529160200191612af7565b820191906000526020600020905b815481529060010190602001808311612ada57829003601f168201915b505050505090806002018054600181600116156101000203166002900480601f016020809104026020016040519081016040528092919081815260200182805460018160011615610100020316600290048015612b955780601f10612b6a57610100808354040283529160200191612b95565b820191906000526020600020905b815481529060010190602001808311612b7857829003601f168201915b505050505090806003018054600181600116156101000203166002900480601f016020809104026020016040519081016040528092919081815260200182805460018160011615610100020316600290048015612c335780601f10612c0857610100808354040283529160200191612c33565b820191906000526020600020905b815481529060010190602001808311612c1657829003601f168201915b505050505090806004018054600181600116156101000203166002900480601f016020809104026020016040519081016040528092919081815260200182805460018160011615610100020316600290048015612cd15780601f10612ca657610100808354040283529160200191612cd1565b820191906000526020600020905b815481529060010190602001808311612cb457829003601f168201915b505050505090806005018054600181600116156101000203166002900480601f016020809104026020016040519081016040528092919081815260200182805460018160011615610100020316600290048015612d6f5780601f10612d4457610100808354040283529160200191612d6f565b820191906000526020600020905b815481529060010190602001808311612d5257829003601f168201915b5050505050908060060154908060070160009054906101000a900473ffffffffffffffffffffffffffffffffffffffff16905088565b612e98600260003373ffffffffffffffffffffffffffffffffffffffff1673ffffffffffffffffffffffffffffffffffffffff1681526020019081526020016000206002018054600181600116156101000203166002900480601f016020809104026020016040519081016040528092919081815260200182805460018160011615610100020316600290048015612e7e5780601f10612e5357610100808354040283529160200191612e7e565b820191906000526020600020905b815481529060010190602001808311612e6157829003601f168201915b505050505060405180602001604052806000815250615be9565b15612eee576040517f08c379a0000000000000000000000000000000000000000000000000000000008152600401808060200182810382526021815260200180615dfe6021913960400191505060405180910390fd5b60011515600260003373ffffffffffffffffffffffffffffffffffffffff1673ffffffffffffffffffffffffffffffffffffffff16815260200190815260200160002060060160009054906101000a900460ff16151514612f9a576040517f08c379a0000000000000000000000000000000000000000000000000000000008152600401808060200182810382526023815260200180615e4d6023913960400191505060405180910390fd5b613171600260003373ffffffffffffffffffffffffffffffffffffffff1673ffffffffffffffffffffffffffffffffffffffff1681526020019081526020016000206002018054600181600116156101000203166002900480601f0160208091040260200160405190810160405280929190818152602001828054600181600116156101000203166002900480156130735780601f1061304857610100808354040283529160200191613073565b820191906000526020600020905b81548152906001019060200180831161305657829003601f168201915b5050505050600660003373ffffffffffffffffffffffffffffffffffffffff1673ffffffffffffffffffffffffffffffffffffffff16815260200190815260200160002083815481106130c257fe5b90600052602060002090600802016000018054600181600116156101000203166002900480601f0160208091040260200160405190810160405280929190818152602001828054600181600116156101000203166002900480156131675780601f1061313c57610100808354040283529160200191613167565b820191906000526020600020905b81548152906001019060200180831161314a57829003601f168201915b5050505050615be9565b6131e3576040517f08c379a000000000000000000000000000000000000000000000000000000000815260040180806020018281038252601c8152602001807f54686973206973206e6f7420796f757220636f6e7369676e6d656e740000000081525060200191505060405180910390fd5b613315600660003373ffffffffffffffffffffffffffffffffffffffff1673ffffffffffffffffffffffffffffffffffffffff168152602001908152602001600020828154811061323057fe5b90600052602060002090600802016005018054600181600116156101000203166002900480601f0160208091040260200160405190810160405280929190818152602001828054600181600116156101000203166002900480156132d55780601f106132aa576101008083540402835291602001916132d5565b820191906000526020600020905b8154815290600101906020018083116132b857829003601f168201915b50505050506040518060400160405280600881526020017f50726f706f736564000000000000000000000000000000000000000000000000815250615be9565b61336a576040517f08c379a0000000000000000000000000000000000000000000000000000000008152600401808060200182810382526026815260200180615e706026913960400191505060405180910390fd5b6000600260003373ffffffffffffffffffffffffffffffffffffffff1673ffffffffffffffffffffffffffffffffffffffff1681526020019081526020016000206005015414613405576040517f08c379a0000000000000000000000000000000000000000000000000000000008152600401808060200182810382526026815260200180615ee76026913960400191505060405180910390fd5b80600260003373ffffffffffffffffffffffffffffffffffffffff1673ffffffffffffffffffffffffffffffffffffffff16815260200190815260200160002060050181905550600260003373ffffffffffffffffffffffffffffffffffffffff1673ffffffffffffffffffffffffffffffffffffffff16815260200190815260200160002060040154600660003373ffffffffffffffffffffffffffffffffffffffff1673ffffffffffffffffffffffffffffffffffffffff16815260200190815260200160002082815481106134d957fe5b9060005260206000209060080201600601600082825402925050819055506000600190505b600660003373ffffffffffffffffffffffffffffffffffffffff1673ffffffffffffffffffffffffffffffffffffffff168152602001908152602001600020805490508110156136ad57818114156135fa576040518060400160405280600881526020017f4163636570746564000000000000000000000000000000000000000000000000815250600660003373ffffffffffffffffffffffffffffffffffffffff1673ffffffffffffffffffffffffffffffffffffffff16815260200190815260200160002083815481106135d057fe5b906000526020600020906008020160050190805190602001906135f4929190615d58565b506136a0565b6040518060400160405280600881526020017f52656a6563746564000000000000000000000000000000000000000000000000815250600660003373ffffffffffffffffffffffffffffffffffffffff1673ffffffffffffffffffffffffffffffffffffffff168152602001908152602001600020828154811061367a57fe5b9060005260206000209060080201600501908051906020019061369e929190615d58565b505b80806001019150506134fe565b5050565b600360205281600052604060002081815481106136ca57fe5b906000526020600020016000915091509054906101000a900473ffffffffffffffffffffffffffffffffffffffff1681565b60046020528060005260406000206000915090508060000154908060010160009054906101000a900473ffffffffffffffffffffffffffffffffffffffff1690806002018054600181600116156101000203166002900480601f0160208091040260200160405190810160405280929190818152602001828054600181600116156101000203166002900480156137d45780601f106137a9576101008083540402835291602001916137d4565b820191906000526020600020905b8154815290600101906020018083116137b757829003601f168201915b5050505050908060030154905084565b60026020528060005260406000206000915090508060000154908060010160009054906101000a900473ffffffffffffffffffffffffffffffffffffffff1690806002018054600181600116156101000203166002900480601f0160208091040260200160405190810160405280929190818152602001828054600181600116156101000203166002900480156138bc5780601f10613891576101008083540402835291602001916138bc565b820191906000526020600020905b81548152906001019060200180831161389f57829003601f168201915b5050505050908060030154908060040154908060050154908060060160009054906101000a900460ff16908060070154905088565b6004600084815260200190815260200160002060010160009054906101000a900473ffffffffffffffffffffffffffffffffffffffff1673ffffffffffffffffffffffffffffffffffffffff163373ffffffffffffffffffffffffffffffffffffffff16146139c8576040517f08c379a00000000000000000000000000000000000000000000000000000000081526004018080602001828103825260098152602001807f466f7262696464656e000000000000000000000000000000000000000000000081525060200191505060405180910390fd5b600073ffffffffffffffffffffffffffffffffffffffff166009600084815260200190815260200160002060010160009054906101000a900473ffffffffffffffffffffffffffffffffffffffff1673ffffffffffffffffffffffffffffffffffffffff161415613aa1576040517f08c379a00000000000000000000000000000000000000000000000000000000081526004018080602001828103825260138152602001807f4e6565647920646f65736e6f742065786973740000000000000000000000000081525060200191505060405180910390fd5b806009600084815260200190815260200160002060050160006101000a81548160ff021916908315150217905550505050565b606060036000838152602001908152602001600020805480602002602001604051908101604052809291908181526020018280548015613b6957602002820191906000526020600020905b8160009054906101000a900473ffffffffffffffffffffffffffffffffffffffff1673ffffffffffffffffffffffffffffffffffffffff1681526020019060010190808311613b1f575b50505050509050919050565b60056020528060005260406000206000915090505481565b613c80600260003373ffffffffffffffffffffffffffffffffffffffff1673ffffffffffffffffffffffffffffffffffffffff1681526020019081526020016000206002018054600181600116156101000203166002900480601f016020809104026020016040519081016040528092919081815260200182805460018160011615610100020316600290048015613c665780601f10613c3b57610100808354040283529160200191613c66565b820191906000526020600020905b815481529060010190602001808311613c4957829003601f168201915b505050505060405180602001604052806000815250615be9565b15613cd6576040517f08c379a0000000000000000000000000000000000000000000000000000000008152600401808060200182810382526021815260200180615e966021913960400191505060405180910390fd5b60011515600260003373ffffffffffffffffffffffffffffffffffffffff1673ffffffffffffffffffffffffffffffffffffffff16815260200190815260200160002060060160009054906101000a900460ff16151514613d82576040517f08c379a0000000000000000000000000000000000000000000000000000000008152600401808060200182810382526023815260200180615e4d6023913960400191505060405180910390fd5b613f59600260003373ffffffffffffffffffffffffffffffffffffffff1673ffffffffffffffffffffffffffffffffffffffff1681526020019081526020016000206002018054600181600116156101000203166002900480601f016020809104026020016040519081016040528092919081815260200182805460018160011615610100020316600290048015613e5b5780601f10613e3057610100808354040283529160200191613e5b565b820191906000526020600020905b815481529060010190602001808311613e3e57829003601f168201915b5050505050600660003373ffffffffffffffffffffffffffffffffffffffff1673ffffffffffffffffffffffffffffffffffffffff1681526020019081526020016000208581548110613eaa57fe5b90600052602060002090600802016000018054600181600116156101000203166002900480601f016020809104026020016040519081016040528092919081815260200182805460018160011615610100020316600290048015613f4f5780601f10613f2457610100808354040283529160200191613f4f565b820191906000526020600020905b815481529060010190602001808311613f3257829003601f168201915b5050505050615be9565b613fcb576040517f08c379a000000000000000000000000000000000000000000000000000000000815260040180806020018281038252601c8152602001807f54686973206973206e6f7420796f757220636f6e7369676e6d656e740000000081525060200191505060405180910390fd5b6140fd600660003373ffffffffffffffffffffffffffffffffffffffff1673ffffffffffffffffffffffffffffffffffffffff168152602001908152602001600020848154811061401857fe5b90600052602060002090600802016005018054600181600116156101000203166002900480601f0160208091040260200160405190810160405280929190818152602001828054600181600116156101000203166002900480156140bd5780601f10614092576101008083540402835291602001916140bd565b820191906000526020600020905b8154815290600101906020018083116140a057829003601f168201915b50505050506040518060400160405280600881526020017f5265636569766564000000000000000000000000000000000000000000000000815250615be9565b61416f576040517f08c379a00000000000000000000000000000000000000000000000000000000081526004018080602001828103825260178152602001807f53746f636b206e6f74207965742072656365697665642100000000000000000081525060200191505060405180910390fd5b6000600260003373ffffffffffffffffffffffffffffffffffffffff1673ffffffffffffffffffffffffffffffffffffffff16815260200190815260200160002060050154141561420b576040517f08c379a0000000000000000000000000000000000000000000000000000000008152600401808060200182810382526023815260200180615f346023913960400191505060405180910390fd5b600073ffffffffffffffffffffffffffffffffffffffff166009600084815260200190815260200160002060010160009054906101000a900473ffffffffffffffffffffffffffffffffffffffff1673ffffffffffffffffffffffffffffffffffffffff1614156142e4576040517f08c379a00000000000000000000000000000000000000000000000000000000081526004018080602001828103825260148152602001807f4e6565647920646f65736e6f742065786973742100000000000000000000000081525060200191505060405180910390fd5b600015156009600084815260200190815260200160002060050160009054906101000a900460ff16151514614381576040517f08c379a00000000000000000000000000000000000000000000000000000000081526004018080602001828103825260168152602001807f4e6565647920697320626c61636b2d6c6973746564210000000000000000000081525060200191505060405180910390fd5b806009600084815260200190815260200160002060030190805190602001906143ab929190615d58565b508260096000848152602001908152602001600020600401819055506001600260003373ffffffffffffffffffffffffffffffffffffffff1673ffffffffffffffffffffffffffffffffffffffff168152602001908152602001600020600401600082825403925050819055506000600260003373ffffffffffffffffffffffffffffffffffffffff1673ffffffffffffffffffffffffffffffffffffffff1681526020019081526020016000206004015414156146fe576000600660003373ffffffffffffffffffffffffffffffffffffffff1673ffffffffffffffffffffffffffffffffffffffff16815260200190815260200160002084815481106144af57fe5b906000526020600020906008020160070160009054906101000a900473ffffffffffffffffffffffffffffffffffffffff1690508073ffffffffffffffffffffffffffffffffffffffff166108fc600260003373ffffffffffffffffffffffffffffffffffffffff1673ffffffffffffffffffffffffffffffffffffffff168152602001908152602001600020600701549081150290604051600060405180830381858888f1935050505015801561456b573d6000803e3d6000fd5b506040518060400160405280600981526020017f436f6d706c657465640000000000000000000000000000000000000000000000815250600660003373ffffffffffffffffffffffffffffffffffffffff1673ffffffffffffffffffffffffffffffffffffffff16815260200190815260200160002085815481106145ec57fe5b90600052602060002090600802016005019080519060200190614610929190615d58565b506000600260003373ffffffffffffffffffffffffffffffffffffffff1673ffffffffffffffffffffffffffffffffffffffff168152602001908152602001600020600701819055506000600260003373ffffffffffffffffffffffffffffffffffffffff1673ffffffffffffffffffffffffffffffffffffffff168152602001908152602001600020600501819055506000600260003373ffffffffffffffffffffffffffffffffffffffff1673ffffffffffffffffffffffffffffffffffffffff16815260200190815260200160002060060160006101000a81548160ff021916908315150217905550505b505050565b6000809054906101000a900473ffffffffffffffffffffffffffffffffffffffff1673ffffffffffffffffffffffffffffffffffffffff163373ffffffffffffffffffffffffffffffffffffffff16146147c5576040517f08c379a00000000000000000000000000000000000000000000000000000000081526004018080602001828103825260098152602001807f466f7262696464656e000000000000000000000000000000000000000000000081525060200191505060405180910390fd5b60405180608001604052808481526020018573ffffffffffffffffffffffffffffffffffffffff16815260200183815260200182815250600460008581526020019081526020016000206000820151816000015560208201518160010160006101000a81548173ffffffffffffffffffffffffffffffffffffffff021916908373ffffffffffffffffffffffffffffffffffffffff160217905550604082015181600201908051906020019061487c929190615cd8565b506060820151816003015590505082600560008673ffffffffffffffffffffffffffffffffffffffff1673ffffffffffffffffffffffffffffffffffffffff1681526020019081526020016000208190555050505050565b600a60205281600052604060002081815481106148ed57fe5b90600052602060002001600091509150505481565b600060036000838152602001908152602001600020805490509050919050565b6000809054906101000a900473ffffffffffffffffffffffffffffffffffffffff1673ffffffffffffffffffffffffffffffffffffffff163373ffffffffffffffffffffffffffffffffffffffff16146149e4576040517f08c379a00000000000000000000000000000000000000000000000000000000081526004018080602001828103825260098152602001807f466f7262696464656e000000000000000000000000000000000000000000000081525060200191505060405180910390fd5b614b016007826040518082805190602001908083835b60208310614a1d57805182526020820191506020810190506020830392506149fa565b6001836020036101000a03801982511681845116808217855250505050505090500191505090815260200160405180910390206002018054600181600116156101000203166002900480601f016020809104026020016040519081016040528092919081815260200182805460018160011615610100020316600290048015614ae75780601f10614abc57610100808354040283529160200191614ae7565b820191906000526020600020905b815481529060010190602001808311614aca57829003601f168201915b505050505060405180602001604052806000815250615be9565b614b73576040517f08c379a000000000000000000000000000000000000000000000000000000000815260040180806020018281038252601b8152602001807f4d616e75666163747572657220616c726561647920657869737473000000000081525060200191505060405180910390fd5b60405180606001604052808473ffffffffffffffffffffffffffffffffffffffff168152602001838152602001828152506007826040518082805190602001908083835b60208310614bda5780518252602082019150602081019050602083039250614bb7565b6001836020036101000a038019825116818451168082178552505050505050905001915050908152602001604051809103902060008201518160000160006101000a81548173ffffffffffffffffffffffffffffffffffffffff021916908373ffffffffffffffffffffffffffffffffffffffff1602179055506020820151816001019080519060200190614c70929190615cd8565b506040820151816002019080519060200190614c8d929190615cd8565b5090505080600860008573ffffffffffffffffffffffffffffffffffffffff1673ffffffffffffffffffffffffffffffffffffffff1681526020019081526020016000209080519060200190614ce4929190615d58565b50505050565b614ddd600260003373ffffffffffffffffffffffffffffffffffffffff1673ffffffffffffffffffffffffffffffffffffffff1681526020019081526020016000206002018054600181600116156101000203166002900480601f016020809104026020016040519081016040528092919081815260200182805460018160011615610100020316600290048015614dc35780601f10614d9857610100808354040283529160200191614dc3565b820191906000526020600020905b815481529060010190602001808311614da657829003601f168201915b505050505060405180602001604052806000815250615be9565b15614e50576040517f08c379a000000000000000000000000000000000000000000000000000000000815260040180806020018281038252601a8152602001807f4f6e6c79205363686f6f6c732063616e20616464204e6565647900000000000081525060200191505060405180910390fd5b6000600960008581526020019081526020016000206000015414614edc576040517f08c379a00000000000000000000000000000000000000000000000000000000081526004018080602001828103825260158152602001807f4e6565647920616c72656164792043726561746564000000000000000000000081525060200191505060405180910390fd5b6040518060c001604052808481526020013373ffffffffffffffffffffffffffffffffffffffff1681526020018381526020018281526020016000815260200160001515815250600960008581526020019081526020016000206000820151816000015560208201518160010160006101000a81548173ffffffffffffffffffffffffffffffffffffffff021916908373ffffffffffffffffffffffffffffffffffffffff160217905550604082015181600201556060820151816003019080519060200190614fad929190615cd8565b506080820151816004015560a08201518160050160006101000a81548160ff021916908315150217905550905050600a60003373ffffffffffffffffffffffffffffffffffffffff1673ffffffffffffffffffffffffffffffffffffffff1681526020019081526020016000208390806001815401808255809150509060018203906000526020600020016000909192909190915055506001600260003373ffffffffffffffffffffffffffffffffffffffff1673ffffffffffffffffffffffffffffffffffffffff16815260200190815260200160002060040160008282540192505081905550505050565b6004600084815260200190815260200160002060010160009054906101000a900473ffffffffffffffffffffffffffffffffffffffff1673ffffffffffffffffffffffffffffffffffffffff163373ffffffffffffffffffffffffffffffffffffffff1614615171576040517f08c379a00000000000000000000000000000000000000000000000000000000081526004018080602001828103825260098152602001807f466f7262696464656e000000000000000000000000000000000000000000000081525060200191505060405180910390fd5b600073ffffffffffffffffffffffffffffffffffffffff16600260008473ffffffffffffffffffffffffffffffffffffffff1673ffffffffffffffffffffffffffffffffffffffff16815260200190815260200160002060010160009054906101000a900473ffffffffffffffffffffffffffffffffffffffff1673ffffffffffffffffffffffffffffffffffffffff161415615276576040517f08c379a00000000000000000000000000000000000000000000000000000000081526004018080602001828103825260148152602001807f5363686f6f6c20646f65736e6f7420657869737400000000000000000000000081525060200191505060405180910390fd5b80600260008473ffffffffffffffffffffffffffffffffffffffff1673ffffffffffffffffffffffffffffffffffffffff16815260200190815260200160002060030181905550505050565b6004600085815260200190815260200160002060010160009054906101000a900473ffffffffffffffffffffffffffffffffffffffff1673ffffffffffffffffffffffffffffffffffffffff163373ffffffffffffffffffffffffffffffffffffffff1614615399576040517f08c379a00000000000000000000000000000000000000000000000000000000081526004018080602001828103825260098152602001807f466f7262696464656e000000000000000000000000000000000000000000000081525060200191505060405180910390fd5b600660008473ffffffffffffffffffffffffffffffffffffffff1673ffffffffffffffffffffffffffffffffffffffff16815260200190815260200160002082815481106153e357fe5b906000526020600020906008020160060154600260008573ffffffffffffffffffffffffffffffffffffffff1673ffffffffffffffffffffffffffffffffffffffff16815260200190815260200160002060070154146154ab576040517f08c379a000000000000000000000000000000000000000000000000000000000815260040180806020018281038252601b8152602001807f446f6e6174696f6e2079657420746f206265207265636569766564000000000081525060200191505060405180910390fd5b6155dd600660008573ffffffffffffffffffffffffffffffffffffffff1673ffffffffffffffffffffffffffffffffffffffff16815260200190815260200160002083815481106154f857fe5b90600052602060002090600802016005018054600181600116156101000203166002900480601f01602080910402602001604051908101604052809291908181526020018280546001816001161561010002031660029004801561559d5780601f106155725761010080835404028352916020019161559d565b820191906000526020600020905b81548152906001019060200180831161558057829003601f168201915b50505050506040518060400160405280600881526020017f4163636570746564000000000000000000000000000000000000000000000000815250615be9565b61564f576040517f08c379a00000000000000000000000000000000000000000000000000000000081526004018080602001828103825260168152602001807f50726f706f73616c206e6f74206163636570746564210000000000000000000081525060200191505060405180910390fd5b61575b600660008573ffffffffffffffffffffffffffffffffffffffff1673ffffffffffffffffffffffffffffffffffffffff168152602001908152602001600020838154811061569c57fe5b90600052602060002090600802016004018054600181600116156101000203166002900480601f0160208091040260200160405190810160405280929190818152602001828054600181600116156101000203166002900480156157415780601f1061571657610100808354040283529160200191615741565b820191906000526020600020905b81548152906001019060200180831161572457829003601f168201915b505050505060405180602001604052806000815250615be9565b6157cd576040517f08c379a00000000000000000000000000000000000000000000000000000000081526004018080602001828103825260118152602001807f416c726561647920636f6e6669726d656400000000000000000000000000000081525060200191505060405180910390fd5b6040518060400160405280600881526020017f5265636569766564000000000000000000000000000000000000000000000000815250600660008573ffffffffffffffffffffffffffffffffffffffff1673ffffffffffffffffffffffffffffffffffffffff168152602001908152602001600020838154811061584d57fe5b90600052602060002090600802016005019080519060200190615871929190615d58565b5080600660008573ffffffffffffffffffffffffffffffffffffffff1673ffffffffffffffffffffffffffffffffffffffff16815260200190815260200160002083815481106158bd57fe5b906000526020600020906008020160040190805190602001906158e1929190615d58565b5050505050565b34600260008473ffffffffffffffffffffffffffffffffffffffff1673ffffffffffffffffffffffffffffffffffffffff1681526020019081526020016000206007015401600660008473ffffffffffffffffffffffffffffffffffffffff1673ffffffffffffffffffffffffffffffffffffffff168152602001908152602001600020828154811061597757fe5b90600052602060002090600802016006015410156159e0576040517f08c379a0000000000000000000000000000000000000000000000000000000008152600401808060200182810382526027815260200180615f0d6027913960400191505060405180910390fd5b34600260008473ffffffffffffffffffffffffffffffffffffffff1673ffffffffffffffffffffffffffffffffffffffff168152602001908152602001600020600701600082825401925050819055505050565b6007818051602081018201805184825260208301602085012081835280955050505050506000915090508060000160009054906101000a900473ffffffffffffffffffffffffffffffffffffffff1690806001018054600181600116156101000203166002900480601f016020809104026020016040519081016040528092919081815260200182805460018160011615610100020316600290048015615b1c5780601f10615af157610100808354040283529160200191615b1c565b820191906000526020600020905b815481529060010190602001808311615aff57829003601f168201915b505050505090806002018054600181600116156101000203166002900480601f016020809104026020016040519081016040528092919081815260200182805460018160011615610100020316600290048015615bba5780601f10615b8f57610100808354040283529160200191615bba565b820191906000526020600020905b815481529060010190602001808311615b9d57829003601f168201915b5050505050905083565b6000809054906101000a900473ffffffffffffffffffffffffffffffffffffffff1681565b6000816040516020018082805190602001908083835b60208310615c225780518252602082019150602081019050602083039250615bff565b6001836020036101000a03801982511681845116808217855250505050505090500191505060405160208183030381529060405280519060200120836040516020018082805190602001908083835b60208310615c945780518252602082019150602081019050602083039250615c71565b6001836020036101000a0380198251168184511680821785525050505050509050019150506040516020818303038152906040528051906020012014905092915050565b828054600181600116156101000203166002900490600052602060002090601f016020900481019282601f10615d1957805160ff1916838001178555615d47565b82800160010185558215615d47579182015b82811115615d46578251825591602001919060010190615d2b565b5b509050615d549190615dd8565b5090565b828054600181600116156101000203166002900490600052602060002090601f016020900481019282601f10615d9957805160ff1916838001178555615dc7565b82800160010185558215615dc7579182015b82811115615dc6578251825591602001919060010190615dab565b5b509050615dd49190615dd8565b5090565b615dfa91905b80821115615df6576000816000905550600101615dde565b5090565b9056fe4f6e6c79205363686f6f6c732063616e206163636570742070726f706f73616c73436f6e7369676e6d656e74206f6e636520636f6d706c657465642063616e6e6f742062652072656a656374656421596f75722071756f7461206973206f6e206e6578742061636164656d6963207965617250726f706f73616c20616c72656164792061636365707465642f61636b6e6f776c65646765644f6e6c79205363686f6f6c732063616e206d6f646966792070726f706f73616c734f6e6c7920617574686f72697a6564206d616e756661637475726572732063616e20676976652070726f706f73616c73596f7520616c7265616479206861766520616e2061637469766520636f6e7369676e6d656e74596f752063616e7420646f6e617465206d6f7265207468616e2063617070656420657468657221596f7520646f6e74206861766520616e2061637469766520636f6e7369676e6d656e74a265627a7a72315820cc16aad1931db70f102e66febb723b4ab2f219590aa9af2bb0546ca78ff8ecb264736f6c63430005100032",
  "source": "pragma solidity ^0.5.16;\r\n\r\ncontract main{\r\n\r\n    address public admin;\r\n    uint proposalCount;\r\n\r\n    struct NeedyStudent{\r\n        uint aadhaar_id;\r\n        address schAddr;\r\n        uint averageFamilyIncome;\r\n        string ipfsHash;\r\n        uint consignment;\r\n        bool flagged;\r\n    }\r\n\r\n    struct school{\r\n        uint pincode;\r\n        address id;\r\n        string name;\r\n        uint totalStudents;\r\n        uint needyCount;\r\n        uint currentConsignment;\r\n        bool active;\r\n        uint balance;\r\n    }\r\n\r\n    struct localAdmin{\r\n        uint pincode;\r\n        address lAdmin;\r\n        string name;\r\n        uint aadhaar_id;\r\n    }\r\n\r\n\r\n    struct manufacturer{\r\n        address payable man_address;\r\n        string compName;\r\n        string cin;\r\n    }\r\n\r\n    struct Proposal{\r\n        string forSchl;\r\n        string byManfac;\r\n        string description;\r\n        string prototypeHash;\r\n        string receiptHash;\r\n        string status;\r\n        uint cost;\r\n        address payable merchant;\r\n    }\r\n\r\n    mapping(address=>school) public schools;\r\n    mapping(uint=>address[]) public schoolsByPin;\r\n    mapping(uint=>localAdmin) public lAdmins;\r\n    mapping(address=>uint) public pincodeByAddress;\r\n    mapping(address=>Proposal[]) public proposalsForSchool;\r\n    mapping(string=>manufacturer) public manufacturers;\r\n    mapping(address=>string) public manufacturerIds;\r\n    mapping(uint=>NeedyStudent) public NeedyStudents;\r\n    mapping(address=>uint[]) public NeedyStudentsBySchool;\r\n\r\n\r\n    constructor() public{\r\n        admin=msg.sender;\r\n        proposalCount=0;\r\n    }\r\n\r\n    function string_check(string memory str1, string memory str2) pure internal returns (bool) {\r\n        return (keccak256(abi.encodePacked(str1)) == keccak256(abi.encodePacked(str2)));\r\n    }\r\n\r\n    function acceptDonation(address _saddress,uint _pid) public payable{\r\n        require(proposalsForSchool[_saddress][_pid].cost>=(schools[_saddress].balance+msg.value),'You cant donate more than capped ether!');\r\n        schools[_saddress].balance+=msg.value;\r\n    }\r\n\r\n    function createLocal(address _address,uint _pincode,string memory _name,uint _aadhaar) public{\r\n         require(msg.sender==admin,\"Forbidden\");\r\n         lAdmins[_pincode]=localAdmin(_pincode,_address,_name,_aadhaar);\r\n         pincodeByAddress[_address]=_pincode;\r\n    }\r\n\r\n    function createManufacturer(address payable _address,string memory _name,string memory _cin) public{\r\n         require(msg.sender==admin,\"Forbidden\");\r\n        require(string_check(manufacturers[_cin].cin,''),'Manufacturer already exists');\r\n        manufacturers[_cin]=manufacturer(_address,_name,_cin);\r\n        manufacturerIds[_address]=_cin;\r\n    }\r\n\r\n    function createSchool(uint _pincode,address _address,string memory _name,uint _total) public{\r\n        require(msg.sender==lAdmins[_pincode].lAdmin,'Forbidden');\r\n        require(schools[_address].id==address(0),\"School id already exist\");\r\n        schools[_address]=school(_pincode,_address,_name,_total,0,0,true,0);\r\n        schoolsByPin[_pincode].push(_address);\r\n        proposalsForSchool[_address].push(Proposal('null','null','null','null','null','Filler',0,address(0)));\r\n    }\r\n\r\n    function getSchoolsByPin(uint _pincode) public returns(address[] memory){\r\n        return(schoolsByPin[_pincode]);\r\n    }\r\n\r\n    function createNeedy(uint _aadhaar,uint _avgIncome,string memory _ipfs) public{\r\n        require(!string_check(schools[msg.sender].name,''),'Only Schools can add Needy');\r\n        require(NeedyStudents[_aadhaar].aadhaar_id==0,\"Needy already Created\");\r\n        NeedyStudents[_aadhaar]=NeedyStudent(_aadhaar,msg.sender,_avgIncome,_ipfs,0,false);\r\n        NeedyStudentsBySchool[msg.sender].push(_aadhaar);\r\n        schools[msg.sender].needyCount+=1;\r\n    }\r\n\r\n    function createProposal(address _saddress,string memory _descreption,string memory _ipfshash,uint _costPerPerson) public {\r\n        require(!string_check(manufacturerIds[msg.sender],''),'Only authorized manufacturers can give proposals');\r\n        proposalCount+=1;\r\n        proposalsForSchool[_saddress].push(Proposal(schools[_saddress].name,manufacturerIds[msg.sender],_descreption,_ipfshash,'','Proposed',_costPerPerson,manufacturers[manufacturerIds[msg.sender]].man_address));\r\n    }\r\n\r\n     function acceptProposal(uint _pid) public {\r\n        require(!string_check(schools[msg.sender].name,''),'Only Schools can accept proposals');\r\n        require(schools[msg.sender].active==true,'Your quota is on next academic year');\r\n        require(string_check(schools[msg.sender].name,proposalsForSchool[msg.sender][_pid].forSchl),'This is not your consignment');\r\n        require(string_check(proposalsForSchool[msg.sender][_pid].status,'Proposed'),'Proposal already accepted/acknowledged');\r\n        require(schools[msg.sender].currentConsignment==0,'You already have an active consignment');\r\n        schools[msg.sender].currentConsignment=_pid;\r\n        proposalsForSchool[msg.sender][_pid].cost*=schools[msg.sender].needyCount;\r\n        for(uint itr=1;itr<proposalsForSchool[msg.sender].length;itr++){\r\n            if(itr==_pid)\r\n            proposalsForSchool[msg.sender][_pid].status='Accepted';\r\n            else\r\n            proposalsForSchool[msg.sender][itr].status='Rejected';\r\n        }\r\n    }\r\n\r\n    function resetConsignment(uint _pincode,address _address,bool _activeKey) public {\r\n        require(msg.sender==lAdmins[_pincode].lAdmin,'Forbidden');\r\n        require(schools[_address].id!=address(0),'School doesnot exist!');\r\n        schools[_address].active=_activeKey;\r\n        if(!_activeKey){\r\n        require(!string_check(proposalsForSchool[_address][schools[_address].currentConsignment].status,'Completed'),'Consignment once completed cannot be rejected!');\r\n        proposalsForSchool[_address][schools[_address].currentConsignment].status='Rejected';\r\n        schools[_address].currentConsignment=0;\r\n        }\r\n    }\r\n\r\n    function flagNeedy(uint _pincode,uint _aadhaar,bool _key) public {\r\n        require(msg.sender==lAdmins[_pincode].lAdmin,'Forbidden');\r\n        require(NeedyStudents[_aadhaar].schAddr!=address(0),'Needy doesnot exist');\r\n        NeedyStudents[_aadhaar].flagged=_key;\r\n    }\r\n\r\n    function updateTotal(uint _pincode,address _saddress,uint _count) public {\r\n        require(msg.sender==lAdmins[_pincode].lAdmin,'Forbidden');\r\n        require(schools[_saddress].id!=address(0),'School doesnot exist');\r\n        schools[_saddress].totalStudents=_count;\r\n    }\r\n\r\n    function confirmReceipt(uint _pincode,address  _saddress,uint _pid,string memory _ipfs) public{\r\n      require(msg.sender==lAdmins[_pincode].lAdmin,'Forbidden');\r\n      require(schools[_saddress].balance==proposalsForSchool[_saddress][_pid].cost,'Donation yet to be received');\r\n      require(string_check(proposalsForSchool[_saddress][_pid].status,'Accepted'),'Proposal not accepted!');\r\n      require(string_check(proposalsForSchool[_saddress][_pid].receiptHash,''),'Already confirmed');\r\n      proposalsForSchool[_saddress][_pid].status='Received';\r\n      proposalsForSchool[_saddress][_pid].receiptHash=_ipfs;\r\n    }\r\n\r\n    function proofOfWork(uint _pid,uint _aadhaar,string memory _ipfs) public payable {\r\n        require(!string_check(schools[msg.sender].name,''),'Only Schools can modify proposals');\r\n        require(schools[msg.sender].active==true,'Your quota is on next academic year');\r\n        require(string_check(schools[msg.sender].name,proposalsForSchool[msg.sender][_pid].forSchl),'This is not your consignment');\r\n        require(string_check(proposalsForSchool[msg.sender][_pid].status,'Received'),'Stock not yet received!');\r\n        require(schools[msg.sender].currentConsignment!=0,'You dont have an active consignment');\r\n        require(NeedyStudents[_aadhaar].schAddr!=address(0),'Needy doesnot exist!');\r\n        require(NeedyStudents[_aadhaar].flagged==false,'Needy is black-listed!');\r\n        NeedyStudents[_aadhaar].ipfsHash=_ipfs;\r\n        NeedyStudents[_aadhaar].consignment=_pid;\r\n        schools[msg.sender].needyCount-=1;\r\n        if(schools[msg.sender].needyCount==0){\r\n            address payable merchant = proposalsForSchool[msg.sender][_pid].merchant;\r\n            merchant.transfer(schools[msg.sender].balance);\r\n            proposalsForSchool[msg.sender][_pid].status='Completed';\r\n            schools[msg.sender].balance=0;\r\n            schools[msg.sender].currentConsignment=0;\r\n            schools[msg.sender].active=false;\r\n        }\r\n    }\r\n\r\n    function getSchoolsCount(uint _pin) public view returns(uint){\r\n        return(schoolsByPin[_pin].length);\r\n    }\r\n\r\n    // function getProposalsCount(address _addr) public view returns(uint){\r\n    //     return(proposalsForSchool[_addr].length);\r\n    // }\r\n\r\n    // function getNeedyCount(address _addr) public view returns(uint){\r\n    //     return(NeedyStudentsBySchool[_addr].length);\r\n    // }\r\n\r\n}\r\n",
  "sourcePath": "C:/Users/tamil/desktop/Phonereum/src/contracts/main.sol",
  "compiler": {
    "name": "solc",
    "version": "0.5.16+commit.9c3226ce.Emscripten.clang"
  },
  "schemaVersion": "3.2.3",
  "updatedAt": "2020-09-19T21:57:46.373Z",
  "networkType": "ethereum",
  "devdoc": {
    "methods": {}
  },
  "userdoc": {
    "methods": {}
  }
}